:10000000020078E4FDFCD208FBED90008493F5A09B
:1000100085A020A20282038201403A3008EB200131
:10002000047C03800C2002047C0280052003027CF7
:10003000017B04EBD39D40061200641B80F5120087
:100040006B12006BE4FBEBC39C50061200640B8048
:10005000F5C20880B4EDC3940350030D8002E4FDA3
:10006000D20880A5C28012006BD280E4FFE4FE0EAD
:10007000BEC8FC0FBFC8F622787FE4F6D8FD7581B4
:08008000210200037FBFDFEF46
:00000001FF
