:100000000200BFE4FDFCFBD208ED9000CB93F5A00D
:1000100085A020A2028203820140693008EBE5201E
:10002000B4DD07EC70047C018056E520B4B707BC52
:1000300001047C02804AE520B4BB07BC02047C03B7
:10004000803EE520B4EB07BC03047C048032E5204D
:10005000B47D0ABC0407120094E4FC8023E520640C
:1000600077701BEC64047016FB120094C2801200BF
:10007000A5D2801200B20BBB02EFE4FC8002E4FCCC
:10008000C2088085EDC3940350030D8002E4FDD2C5
:1000900008020009C2801200A5D2801200A5C28009
:1000A0001200A5D280E4FFE4FE0EBE96FC0FBF96C0
:1000B000F622E4FFE4FE0EBEC8FC0FBFC8F62278AD
:0F00C0007FE4F6D8FD7581210200037FBFDFEFDB
:00000001FF
